:1001AC00003F0006005B004F0066006D007D0007FD
:0401BC00007F006F51
:0C01E300010A0A010800010B14010902C6
:10018E00E4F590F5A0C2A1D2A2C2A0D2A3C2A4C28D
:0E019E00A5C2A61201D312000E1201C080F8F5
:03000B0002013DB2
:10013D00C0E0C0D0C28C758CFC758A66E508D3957D
:10014D000B5004D2A08002C2A00508E508C3946438
:0C015D004003750800D28CD0D0D0E032F6
:040169007F027E0093
:10016D00D3EF9400EE940040147D6E7C00ED1D7075
:10017D00011CED4C70F7EF1F70E61E80E3E4FEFFEF
:01018D00224F
:1001D300758901758CFC758A66D2A9D28CD2AF223F
:10000E0020801A12016920800720A604B2A2B2A392
:10001E0020800730A604B2A1B2A33080FD20812635
:10002E00120169208120E50A250BF50B0509C2A4F2
:10003E00C2A5D2A3C3945A400A750B5A750909D2A8
:10004E00A4C2A53081FD208229120169208223E5F8
:10005E000BD3940A400EE50B950AF50B1509C2A5B4
:10006E00C2A4800BE4F50BF509C2A4D2A5B2A3304D
:10007E0082FD20831B120169208312750902750B04
:10008E0014C2A5C2A4D2A3C2A1D2A2C2A63083FD1D
:10009E0020840F120169208406B2A1B2A2B2A6304A
:0300AE0084FD22AC
:1001C000E50925E024ACF582E43401F5837401935C
:0301D000F5902285
:030000000200B14A
:0C00B100787FE4F6D8FD75810B0200F8A2
:1000BD0002018EE493A3F8E493A34003F68001F2CA
:1000CD0008DFF48029E493A3F85407240CC8C33344
:1000DD00C4540F4420C8834004F456800146F6DF13
:1000ED00E4800B01020408102040809001E3E47EBF
:1000FD00019360BCA3FF543F30E509541FFEE49308
:10010D00A360010ECF54C025E060A840B8E493A3CE
:10011D00FAE493A3F8E493A3C8C582C8CAC583CAF9
:10012D00F0A3C8C582C8CAC583CADFE9DEE780BEB1
:0101EF00000F
:00000001FF
